{
    "_format": "hh-sol-artifact-1",
    "contractName": "MyNFT",
    "sourceName": "contracts/MyNFT.sol",
    "abi": [
        {
            "inputs": [],
            "stateMutability": "nonpayable",
            "type": "constructor"
        },
        {
            "anonymous": false,
            "inputs": [
                {
                    "indexed": true,
                    "internalType": "address",
                    "name": "owner",
                    "type": "address"
                },
                {
                    "indexed": true,
                    "internalType": "address",
                    "name": "approved",
                    "type": "address"
                },
                {
                    "indexed": true,
                    "internalType": "uint256",
                    "name": "tokenId",
                    "type": "uint256"
                }
            ],
            "name": "Approval",
            "type": "event"
        },
        {
            "anonymous": false,
            "inputs": [
                {
                    "indexed": true,
                    "internalType": "address",
                    "name": "owner",
                    "type": "address"
                },
                {
                    "indexed": true,
                    "internalType": "address",
                    "name": "operator",
                    "type": "address"
                },
                {
                    "indexed": false,
                    "internalType": "bool",
                    "name": "approved",
                    "type": "bool"
                }
            ],
            "name": "ApprovalForAll",
            "type": "event"
        },
        {
            "anonymous": false,
            "inputs": [
                {
                    "indexed": false,
                    "internalType": "address",
                    "name": "sender",
                    "type": "address"
                },
                {
                    "indexed": false,
                    "internalType": "uint256",
                    "name": "tokenId",
                    "type": "uint256"
                }
            ],
            "name": "NewNFTMinted",
            "type": "event"
        },
        {
            "anonymous": false,
            "inputs": [
                {
                    "indexed": true,
                    "internalType": "address",
                    "name": "from",
                    "type": "address"
                },
                {
                    "indexed": true,
                    "internalType": "address",
                    "name": "to",
                    "type": "address"
                },
                {
                    "indexed": true,
                    "internalType": "uint256",
                    "name": "tokenId",
                    "type": "uint256"
                }
            ],
            "name": "Transfer",
            "type": "event"
        },
        {
            "inputs": [
                {
                    "internalType": "address",
                    "name": "to",
                    "type": "address"
                },
                {
                    "internalType": "uint256",
                    "name": "tokenId",
                    "type": "uint256"
                }
            ],
            "name": "approve",
            "outputs": [],
            "stateMutability": "nonpayable",
            "type": "function"
        },
        {
            "inputs": [
                {
                    "internalType": "address",
                    "name": "owner",
                    "type": "address"
                }
            ],
            "name": "balanceOf",
            "outputs": [
                {
                    "internalType": "uint256",
                    "name": "",
                    "type": "uint256"
                }
            ],
            "stateMutability": "view",
            "type": "function"
        },
        {
            "inputs": [
                {
                    "internalType": "uint256",
                    "name": "tokenId",
                    "type": "uint256"
                }
            ],
            "name": "getApproved",
            "outputs": [
                {
                    "internalType": "address",
                    "name": "",
                    "type": "address"
                }
            ],
            "stateMutability": "view",
            "type": "function"
        },
        {
            "inputs": [
                {
                    "internalType": "address",
                    "name": "owner",
                    "type": "address"
                },
                {
                    "internalType": "address",
                    "name": "operator",
                    "type": "address"
                }
            ],
            "name": "isApprovedForAll",
            "outputs": [
                {
                    "internalType": "bool",
                    "name": "",
                    "type": "bool"
                }
            ],
            "stateMutability": "view",
            "type": "function"
        },
        {
            "inputs": [],
            "name": "makeNFT",
            "outputs": [],
            "stateMutability": "nonpayable",
            "type": "function"
        },
        {
            "inputs": [],
            "name": "name",
            "outputs": [
                {
                    "internalType": "string",
                    "name": "",
                    "type": "string"
                }
            ],
            "stateMutability": "view",
            "type": "function"
        },
        {
            "inputs": [
                {
                    "internalType": "uint256",
                    "name": "tokenId",
                    "type": "uint256"
                }
            ],
            "name": "ownerOf",
            "outputs": [
                {
                    "internalType": "address",
                    "name": "",
                    "type": "address"
                }
            ],
            "stateMutability": "view",
            "type": "function"
        },
        {
            "inputs": [
                {
                    "internalType": "uint256",
                    "name": "tokenId",
                    "type": "uint256"
                }
            ],
            "name": "pickRandomFirstWord",
            "outputs": [
                {
                    "internalType": "string",
                    "name": "",
                    "type": "string"
                }
            ],
            "stateMutability": "view",
            "type": "function"
        },
        {
            "inputs": [
                {
                    "internalType": "uint256",
                    "name": "tokenId",
                    "type": "uint256"
                }
            ],
            "name": "pickRandomSecondWord",
            "outputs": [
                {
                    "internalType": "string",
                    "name": "",
                    "type": "string"
                }
            ],
            "stateMutability": "view",
            "type": "function"
        },
        {
            "inputs": [
                {
                    "internalType": "uint256",
                    "name": "tokenId",
                    "type": "uint256"
                }
            ],
            "name": "pickRandomThirdWord",
            "outputs": [
                {
                    "internalType": "string",
                    "name": "",
                    "type": "string"
                }
            ],
            "stateMutability": "view",
            "type": "function"
        },
        {
            "inputs": [
                {
                    "internalType": "address",
                    "name": "from",
                    "type": "address"
                },
                {
                    "internalType": "address",
                    "name": "to",
                    "type": "address"
                },
                {
                    "internalType": "uint256",
                    "name": "tokenId",
                    "type": "uint256"
                }
            ],
            "name": "safeTransferFrom",
            "outputs": [],
            "stateMutability": "nonpayable",
            "type": "function"
        },
        {
            "inputs": [
                {
                    "internalType": "address",
                    "name": "from",
                    "type": "address"
                },
                {
                    "internalType": "address",
                    "name": "to",
                    "type": "address"
                },
                {
                    "internalType": "uint256",
                    "name": "tokenId",
                    "type": "uint256"
                },
                {
                    "internalType": "bytes",
                    "name": "_data",
                    "type": "bytes"
                }
            ],
            "name": "safeTransferFrom",
            "outputs": [],
            "stateMutability": "nonpayable",
            "type": "function"
        },
        {
            "inputs": [
                {
                    "internalType": "address",
                    "name": "operator",
                    "type": "address"
                },
                {
                    "internalType": "bool",
                    "name": "approved",
                    "type": "bool"
                }
            ],
            "name": "setApprovalForAll",
            "outputs": [],
            "stateMutability": "nonpayable",
            "type": "function"
        },
        {
            "inputs": [
                {
                    "internalType": "bytes4",
                    "name": "interfaceId",
                    "type": "bytes4"
                }
            ],
            "name": "supportsInterface",
            "outputs": [
                {
                    "internalType": "bool",
                    "name": "",
                    "type": "bool"
                }
            ],
            "stateMutability": "view",
            "type": "function"
        },
        {
            "inputs": [],
            "name": "symbol",
            "outputs": [
                {
                    "internalType": "string",
                    "name": "",
                    "type": "string"
                }
            ],
            "stateMutability": "view",
            "type": "function"
        },
        {
            "inputs": [
                {
                    "internalType": "uint256",
                    "name": "tokenId",
                    "type": "uint256"
                }
            ],
            "name": "tokenURI",
            "outputs": [
                {
                    "internalType": "string",
                    "name": "",
                    "type": "string"
                }
            ],
            "stateMutability": "view",
            "type": "function"
        },
        {
            "inputs": [
                {
                    "internalType": "address",
                    "name": "from",
                    "type": "address"
                },
                {
                    "internalType": "address",
                    "name": "to",
                    "type": "address"
                },
                {
                    "internalType": "uint256",
                    "name": "tokenId",
                    "type": "uint256"
                }
            ],
            "name": "transferFrom",
            "outputs": [],
            "stateMutability": "nonpayable",
            "type": "function"
        }
    ],
    "bytecode": "0x608060405260405180610160016040528061012f8152602001620048b561012f9139600890805190602001906200003892919062000c7f565b50604051806101c001604052806040518060400160405280601381526020017f45766572797468696e672042757420546865200000000000000000000000000081525081526020016040518060400160405280600981526020017f352043686565736520000000000000000000000000000000000000000000000081525081526020016040518060400160405280600f81526020017f4461726b2043686f636f6c61746520000000000000000000000000000000000081525081526020016040518060400160405280600f81526020017f417369616e20496e73706972656420000000000000000000000000000000000081525081526020016040518060400160405280601081526020017f4372697370792c204372756e636879200000000000000000000000000000000081525081526020016040518060400160405280600c81526020017f476c7574656e204672656520000000000000000000000000000000000000000081525081526020016040518060400160405280600a81526020017f556e65787065637464200000000000000000000000000000000000000000000081525081526020016040518060400160405280601481526020017f41204d696473756d6d6572204e6967687427732000000000000000000000000081525081526020016040518060400160405280600f81526020017f50756d706b696e2053706963656420000000000000000000000000000000000081525081526020016040518060400160405280600e81526020017f547269706c652047696e6765722000000000000000000000000000000000000081525081526020016040518060400160405280600b81526020017f43616e64792043616e652000000000000000000000000000000000000000000081525081526020016040518060400160405280600d81526020017f446f75626c65204672696564200000000000000000000000000000000000000081525081526020016040518060400160405280600d81526020017f55626520466c61766f726564200000000000000000000000000000000000000081525081526020016040518060400160405280601681526020017f4368696c692026204c696d6520466c61766f7265642000000000000000000000815250815250600990600e6200038f92919062000d10565b50604051806101e001604052806040518060400160405280600781526020017f4d6173616c61200000000000000000000000000000000000000000000000000081525081526020016040518060400160405280600681526020017f4d6f63686920000000000000000000000000000000000000000000000000000081525081526020016040518060400160405280600e81526020017f416c6d6f6e64204275747465722000000000000000000000000000000000000081525081526020016040518060400160405280600881526020017f4564616d616d652000000000000000000000000000000000000000000000000081525081526020016040518060400160405280600c81526020017f57686f6c6520477261696e20000000000000000000000000000000000000000081525081526020016040518060400160405280601081526020017f4272757373656c73205370726f7574200000000000000000000000000000000081525081526020016040518060400160405280600d81526020017f4261736d6174692052696365200000000000000000000000000000000000000081525081526020016040518060400160405280600f81526020017f436172616d656c2046696c6c656420000000000000000000000000000000000081525081526020016040518060400160405280600681526020017f426167656c20000000000000000000000000000000000000000000000000000081525081526020016040518060400160405280601281526020017f5269636564204361756c69666c6f77657220000000000000000000000000000081525081526020016040518060400160405280600d81526020017f436f6c642050726573736564200000000000000000000000000000000000000081525081526020016040518060400160405280600681526020017f4d61706c6520000000000000000000000000000000000000000000000000000081525081526020016040518060400160405280600e81526020017f4d65786963616e205374796c652000000000000000000000000000000000000081525081526020016040518060400160405280600d81526020017f4d6163202620436865657365200000000000000000000000000000000000000081525081526020016040518060400160405280600c81526020017f436f636f6e7574204f696c200000000000000000000000000000000000000000815250815250600a90600f6200072192919062000d77565b50604051806101e001604052806040518060400160405280600781526020017f4e7567676574730000000000000000000000000000000000000000000000000081525081526020016040518060400160405280600781526020017f427572676572730000000000000000000000000000000000000000000000000081525081526020016040518060400160405280600581526020017f47796f7a6100000000000000000000000000000000000000000000000000000081525081526020016040518060400160405280600781526020017f4772616e6f6c610000000000000000000000000000000000000000000000000081525081526020016040518060400160405280600681526020017f537072656164000000000000000000000000000000000000000000000000000081525081526020016040518060400160405280600881526020017f4b6f6d627563686100000000000000000000000000000000000000000000000081525081526020016040518060400160405280600581526020017f426974657300000000000000000000000000000000000000000000000000000081525081526020016040518060400160405280600f81526020017f536561736f6e696e6720426c656e64000000000000000000000000000000000081525081526020016040518060400160405280600881526020017f537469722046727900000000000000000000000000000000000000000000000081525081526020016040518060400160405280600b81526020017f50697a7a6120437275737400000000000000000000000000000000000000000081525081526020016040518060400160405280600581526020017f53616c736100000000000000000000000000000000000000000000000000000081525081526020016040518060400160405280600681526020017f48756d6d7573000000000000000000000000000000000000000000000000000081525081526020016040518060400160405280600581526020017f426974657300000000000000000000000000000000000000000000000000000081525081526020016040518060400160405280600681526020017f596f67757274000000000000000000000000000000000000000000000000000081525081526020016040518060400160405280600a81526020017f57696e74657220416c6500000000000000000000000000000000000000000000815250815250600b90600f62000ab392919062000d77565b5034801562000ac157600080fd5b506040518060400160405280600681526020017f4a61734e465400000000000000000000000000000000000000000000000000008152506040518060400160405280600381526020017f4a41530000000000000000000000000000000000000000000000000000000000815250816000908051906020019062000b4692919062000c7f565b50806001908051906020019062000b5f92919062000c7f565b50505062000bad6040518060400160405280601881526020017f54686973206973206d79204e465420636f6e747261637421000000000000000081525062000bb360201b620011021760201c565b62000f98565b62000c538160405160240162000bca919062000eac565b6040516020818303038152906040527f41304fac000000000000000000000000000000000000000000000000000000007bffffffffffffffffffffffffffffffffffffffffffffffffffffffff19166020820180517bffffffffffffffffffffffffffffffffffffffffffffffffffffffff838183161783525050505062000c5660201b60201c565b50565b60008151905060006a636f6e736f6c652e6c6f679050602083016000808483855afa5050505050565b82805462000c8d9062000f22565b90600052602060002090601f01602090048101928262000cb1576000855562000cfd565b82601f1062000ccc57805160ff191683800117855562000cfd565b8280016001018555821562000cfd579182015b8281111562000cfc57825182559160200191906001019062000cdf565b5b50905062000d0c919062000dde565b5090565b82805482825590600052602060002090810192821562000d64579160200282015b8281111562000d6357825182908051906020019062000d5292919062000c7f565b509160200191906001019062000d31565b5b50905062000d73919062000dfd565b5090565b82805482825590600052602060002090810192821562000dcb579160200282015b8281111562000dca57825182908051906020019062000db992919062000c7f565b509160200191906001019062000d98565b5b50905062000dda919062000dfd565b5090565b5b8082111562000df957600081600090555060010162000ddf565b5090565b5b8082111562000e21576000818162000e17919062000e25565b5060010162000dfe565b5090565b50805462000e339062000f22565b6000825580601f1062000e47575062000e68565b601f01602090049060005260206000209081019062000e67919062000dde565b5b50565b600062000e788262000ed0565b62000e84818562000edb565b935062000e9681856020860162000eec565b62000ea18162000f87565b840191505092915050565b6000602082019050818103600083015262000ec8818462000e6b565b905092915050565b600081519050919050565b600082825260208201905092915050565b60005b8381101562000f0c57808201518184015260208101905062000eef565b8381111562000f1c576000848401525b50505050565b6000600282049050600182168062000f3b57607f821691505b6020821081141562000f525762000f5162000f58565b5b50919050565b7f4e487b7100000000000000000000000000000000000000000000000000000000600052602260045260246000fd5b6000601f19601f8301169050919050565b61390d8062000fa86000396000f3fe608060405234801561001057600080fd5b506004361061010b5760003560e01c806370a08231116100a2578063b187301f11610071578063b187301f146102b6578063b88d4fde146102e6578063c575757a14610302578063c87b56dd14610332578063e985e9c5146103625761010b565b806370a082311461024257806395d89b4114610272578063a22cb46514610290578063b036b4bd146102ac5761010b565b806323b872dd116100de57806323b872dd146101aa5780632de38d68146101c657806342842e0e146101f65780636352211e146102125761010b565b806301ffc9a71461011057806306fdde0314610140578063081812fc1461015e578063095ea7b31461018e575b600080fd5b61012a60048036038101906101259190612502565b610392565b6040516101379190613164565b60405180910390f35b610148610474565b604051610155919061317f565b60405180910390f35b61017860048036038101906101739190612554565b610506565b60405161018591906130d4565b60405180910390f35b6101a860048036038101906101a391906124c6565b61058b565b005b6101c460048036038101906101bf91906123c0565b6106a3565b005b6101e060048036038101906101db9190612554565b610703565b6040516101ed919061317f565b60405180910390f35b610210600480360381019061020b91906123c0565b610821565b005b61022c60048036038101906102279190612554565b610841565b60405161023991906130d4565b60405180910390f35b61025c6004803603810190610257919061235b565b6108f3565b60405161026991906133ff565b60405180910390f35b61027a6109ab565b604051610287919061317f565b60405180910390f35b6102aa60048036038101906102a5919061248a565b610a3d565b005b6102b4610a53565b005b6102d060048036038101906102cb9190612554565b610c7e565b6040516102dd919061317f565b60405180910390f35b61030060048036038101906102fb919061240f565b610d9c565b005b61031c60048036038101906103179190612554565b610dfe565b604051610329919061317f565b60405180910390f35b61034c60048036038101906103479190612554565b610f1c565b604051610359919061317f565b60405180910390f35b61037c60048036038101906103779190612384565b61106e565b6040516103899190613164565b60405180910390f35b60007f80ac58cd000000000000000000000000000000000000000000000000000000007bffffffffffffffffffffffffffffffffffffffffffffffffffffffff1916827bffffffffffffffffffffffffffffffffffffffffffffffffffffffff1916148061045d57507f5b5e139f000000000000000000000000000000000000000000000000000000007bffffffffffffffffffffffffffffffffffffffffffffffffffffffff1916827bffffffffffffffffffffffffffffffffffffffffffffffffffffffff1916145b8061046d575061046c8261119b565b5b9050919050565b6060600080546104839061369e565b80601f01602080910402602001604051908101604052809291908181526020018280546104af9061369e565b80156104fc5780601f106104d1576101008083540402835291602001916104fc565b820191906000526020600020905b8154815290600101906020018083116104df57829003601f168201915b5050505050905090565b600061051182611205565b610550576040517f08c379a00000000000000000000000000000000000000000000000000000000081526004016105479061333f565b60405180910390fd5b6004600083815260200190815260200160002060009054906101000a900473ffffffffffffffffffffffffffffffffffffffff169050919050565b600061059682610841565b90508073ffffffffffffffffffffffffffffffffffffffff168373ffffffffffffffffffffffffffffffffffffffff161415610607576040517f08c379a00000000000000000000000000000000000000000000000000000000081526004016105fe9061339f565b60405180910390fd5b8073ffffffffffffffffffffffffffffffffffffffff16610626611271565b73ffffffffffffffffffffffffffffffffffffffff16148061065557506106548161064f611271565b61106e565b5b610694576040517f08c379a000000000000000000000000000000000000000000000000000000000815260040161068b9061327f565b60405180910390fd5b61069e8383611279565b505050565b6106b46106ae611271565b82611332565b6106f3576040517f08c379a00000000000000000000000000000000000000000000000000000000081526004016106ea906133bf565b60405180910390fd5b6106fe838383611410565b505050565b606060006107376107138461166c565b6040516020016107239190613090565b604051602081830303815290604052611819565b90506009805490508161074a9190613719565b905060098181548110610786577f4e487b7100000000000000000000000000000000000000000000000000000000600052603260045260246000fd5b90600052602060002001805461079b9061369e565b80601f01602080910402602001604051908101604052809291908181526020018280546107c79061369e565b80156108145780601f106107e957610100808354040283529160200191610814565b820191906000526020600020905b8154815290600101906020018083116107f757829003601f168201915b5050505050915050919050565b61083c83838360405180602001604052806000815250610d9c565b505050565b6000806002600084815260200190815260200160002060009054906101000a900473ffffffffffffffffffffffffffffffffffffffff169050600073ffffffffffffffffffffffffffffffffffffffff168173ffffffffffffffffffffffffffffffffffffffff1614156108ea576040517f08c379a00000000000000000000000000000000000000000000000000000000081526004016108e1906132bf565b60405180910390fd5b80915050919050565b60008073ffffffffffffffffffffffffffffffffffffffff168273ffffffffffffffffffffffffffffffffffffffff161415610964576040517f08c379a000000000000000000000000000000000000000000000000000000000815260040161095b9061329f565b60405180910390fd5b600360008373ffffffffffffffffffffffffffffffffffffffff1673ffffffffffffffffffffffffffffffffffffffff168152602001908152602001600020549050919050565b6060600180546109ba9061369e565b80601f01602080910402602001604051908101604052809291908181526020018280546109e69061369e565b8015610a335780601f10610a0857610100808354040283529160200191610a33565b820191906000526020600020905b815481529060010190602001808311610a1657829003601f168201915b5050505050905090565b610a4f610a48611271565b838361184c565b5050565b6000610a5f60076119b9565b90506032811115610aa5576040517f08c379a0000000000000000000000000000000000000000000000000000000008152600401610a9c906133df565b60405180910390fd5b6000610ab082610703565b90506000610abd83610c7e565b90506000610aca84610dfe565b90506000838383604051602001610ae393929190612fa7565b60405160208183030381529060405290506000600882604051602001610b0a929190612fd8565b60405160208183030381529060405290506000610b4f83610b2a846119c7565b604051602001610b3b92919061304b565b6040516020818303038152906040526119c7565b9050600081604051602001610b6491906130b2565b6040516020818303038152906040529050610bb36040518060400160405280601581526020017f0a2d2d2d2d2d2d2d2d2d2d2d2d2d2d2d2d2d2d2d2d0000000000000000000000815250611102565b610bbc83611102565b610bfa6040518060400160405280601581526020017f2d2d2d2d2d2d2d2d2d2d2d2d2d2d2d2d2d2d2d2d0a0000000000000000000000815250611102565b610c043389611b85565b610c0e8882611ba3565b610c186007611c17565b610c3b6040518060600160405280602481526020016138b4602491398933611c2d565b7f1c05098ed1ff38e6238d2b1b04b2c7977d4c94ce651bda6473f9dba8dbf01da03389604051610c6c92919061313b565b60405180910390a15050505050505050565b60606000610cb2610c8e8461166c565b604051602001610c9e9190613029565b604051602081830303815290604052611819565b9050600a8054905081610cc59190613719565b9050600a8181548110610d01577f4e487b7100000000000000000000000000000000000000000000000000000000600052603260045260246000fd5b906000526020600020018054610d169061369e565b80601f0160208091040260200160405190810160405280929190818152602001828054610d429061369e565b8015610d8f5780601f10610d6457610100808354040283529160200191610d8f565b820191906000526020600020905b815481529060010190602001808311610d7257829003601f168201915b5050505050915050919050565b610dad610da7611271565b83611332565b610dec576040517f08c379a0000000000000000000000000000000000000000000000000000000008152600401610de3906133bf565b60405180910390fd5b610df884848484611ccc565b50505050565b60606000610e32610e0e8461166c565b604051602001610e1e9190613007565b604051602081830303815290604052611819565b9050600b8054905081610e459190613719565b9050600b8181548110610e81577f4e487b7100000000000000000000000000000000000000000000000000000000600052603260045260246000fd5b906000526020600020018054610e969061369e565b80601f0160208091040260200160405190810160405280929190818152602001828054610ec29061369e565b8015610f0f5780601f10610ee457610100808354040283529160200191610f0f565b820191906000526020600020905b815481529060010190602001808311610ef257829003601f168201915b5050505050915050919050565b6060610f2782611205565b610f66576040517f08c379a0000000000000000000000000000000000000000000000000000000008152600401610f5d9061331f565b60405180910390fd5b6000600660008481526020019081526020016000208054610f869061369e565b80601f0160208091040260200160405190810160405280929190818152602001828054610fb29061369e565b8015610fff5780601f10610fd457610100808354040283529160200191610fff565b820191906000526020600020905b815481529060010190602001808311610fe257829003601f168201915b505050505090506000611010611d28565b9050600081511415611026578192505050611069565b60008251111561105b578082604051602001611043929190612f83565b60405160208183030381529060405292505050611069565b61106484611d3f565b925050505b919050565b6000600560008473ffffffffffffffffffffffffffffffffffffffff1673ffffffffffffffffffffffffffffffffffffffff16815260200190815260200160002060008373ffffffffffffffffffffffffffffffffffffffff1673ffffffffffffffffffffffffffffffffffffffff16815260200190815260200160002060009054906101000a900460ff16905092915050565b61119881604051602401611116919061317f565b6040516020818303038152906040527f41304fac000000000000000000000000000000000000000000000000000000007bffffffffffffffffffffffffffffffffffffffffffffffffffffffff19166020820180517bffffffffffffffffffffffffffffffffffffffffffffffffffffffff8381831617835250505050611de6565b50565b60007f01ffc9a7000000000000000000000000000000000000000000000000000000007bffffffffffffffffffffffffffffffffffffffffffffffffffffffff1916827bffffffffffffffffffffffffffffffffffffffffffffffffffffffff1916149050919050565b60008073ffffffffffffffffffffffffffffffffffffffff166002600084815260200190815260200160002060009054906101000a900473ffffffffffffffffffffffffffffffffffffffff1673ffffffffffffffffffffffffffffffffffffffff1614159050919050565b600033905090565b816004600083815260200190815260200160002060006101000a81548173ffffffffffffffffffffffffffffffffffffffff021916908373ffffffffffffffffffffffffffffffffffffffff160217905550808273ffffffffffffffffffffffffffffffffffffffff166112ec83610841565b73ffffffffffffffffffffffffffffffffffffffff167f8c5be1e5ebec7d5bd14f71427d1e84f3dd0314c0f7b2291e5b200ac8c7c3b92560405160405180910390a45050565b600061133d82611205565b61137c576040517f08c379a00000000000000000000000000000000000000000000000000000000081526004016113739061325f565b60405180910390fd5b600061138783610841565b90508073ffffffffffffffffffffffffffffffffffffffff168473ffffffffffffffffffffffffffffffffffffffff1614806113f657508373ffffffffffffffffffffffffffffffffffffffff166113de84610506565b73ffffffffffffffffffffffffffffffffffffffff16145b806114075750611406818561106e565b5b91505092915050565b8273ffffffffffffffffffffffffffffffffffffffff1661143082610841565b73ffffffffffffffffffffffffffffffffffffffff1614611486576040517f08c379a000000000000000000000000000000000000000000000000000000000815260040161147d9061335f565b60405180910390fd5b600073ffffffffffffffffffffffffffffffffffffffff168273ffffffffffffffffffffffffffffffffffffffff1614156114f6576040517f08c379a00000000000000000000000000000000000000000000000000000000081526004016114ed9061321f565b60405180910390fd5b611501838383611e0f565b61150c600082611279565b6001600360008573ffffffffffffffffffffffffffffffffffffffff1673ffffffffffffffffffffffffffffffffffffffff168152602001908152602001600020600082825461155c91906135b4565b925050819055506001600360008473ffffffffffffffffffffffffffffffffffffffff1673ffffffffffffffffffffffffffffffffffffffff16815260200190815260200160002060008282546115b391906134d3565b92505081905550816002600083815260200190815260200160002060006101000a81548173ffffffffffffffffffffffffffffffffffffffff021916908373ffffffffffffffffffffffffffffffffffffffff160217905550808273ffffffffffffffffffffffffffffffffffffffff168473ffffffffffffffffffffffffffffffffffffffff167fddf252ad1be2c89b69c2b068fc378daa952ba7f163c4a11628f55a4df523b3ef60405160405180910390a4505050565b606060008214156116b4576040518060400160405280600181526020017f30000000000000000000000000000000000000000000000000000000000000008152509050611814565b600082905060005b600082146116e65780806116cf906136d0565b915050600a826116df9190613529565b91506116bc565b60008167ffffffffffffffff811115611728577f4e487b7100000000000000000000000000000000000000000000000000000000600052604160045260246000fd5b6040519080825280601f01601f19166020018201604052801561175a5781602001600182028036833780820191505090505b5090505b6000851461180d5760018261177391906135b4565b9150600a856117829190613719565b603061178e91906134d3565b60f81b8183815181106117ca577f4e487b7100000000000000000000000000000000000000000000000000000000600052603260045260246000fd5b60200101907effffffffffffffffffffffffffffffffffffffffffffffffffffffffffffff1916908160001a905350600a856118069190613529565b945061175e565b8093505050505b919050565b60008160405160200161182c9190612f6c565b6040516020818303038152906040528051906020012060001c9050919050565b8173ffffffffffffffffffffffffffffffffffffffff168373ffffffffffffffffffffffffffffffffffffffff1614156118bb576040517f08c379a00000000000000000000000000000000000000000000000000000000081526004016118b29061323f565b60405180910390fd5b80600560008573ffffffffffffffffffffffffffffffffffffffff1673ffffffffffffffffffffffffffffffffffffffff16815260200190815260200160002060008473ffffffffffffffffffffffffffffffffffffffff1673ffffffffffffffffffffffffffffffffffffffff16815260200190815260200160002060006101000a81548160ff0219169083151502179055508173ffffffffffffffffffffffffffffffffffffffff168373ffffffffffffffffffffffffffffffffffffffff167f17307eab39ab6107e8899845ad3d59bd9653f200f220920489ca2b5937696c31836040516119ac9190613164565b60405180910390a3505050565b600081600001549050919050565b606060008251905060008114156119f05760405180602001604052806000815250915050611b80565b60006003600283611a0191906134d3565b611a0b9190613529565b6004611a17919061355a565b90506000602082611a2891906134d3565b67ffffffffffffffff811115611a67577f4e487b7100000000000000000000000000000000000000000000000000000000600052604160045260246000fd5b6040519080825280601f01601f191660200182016040528015611a995781602001600182028036833780820191505090505b5090506000604051806060016040528060408152602001613874604091399050600181016020830160005b86811015611b3d5760038101905062ffffff818a015116603f8160121c168401518060081b905060ff603f83600c1c1686015116810190508060081b905060ff603f8360061c1686015116810190508060081b905060ff603f831686015116810190508060e01b90508084526004840193505050611ac4565b506003860660018114611b575760028114611b6757611b72565b613d3d60f01b6002830352611b72565b603d60f81b60018303525b508484525050819450505050505b919050565b611b9f828260405180602001604052806000815250611e14565b5050565b611bac82611205565b611beb576040517f08c379a0000000000000000000000000000000000000000000000000000000008152600401611be2906132df565b60405180910390fd5b80600660008481526020019081526020016000209080519060200190611c129291906121e7565b505050565b6001816000016000828254019250508190555050565b611cc7838383604051602401611c45939291906131a1565b6040516020818303038152906040527fe3849f79000000000000000000000000000000000000000000000000000000007bffffffffffffffffffffffffffffffffffffffffffffffffffffffff19166020820180517bffffffffffffffffffffffffffffffffffffffffffffffffffffffff8381831617835250505050611de6565b505050565b611cd7848484611410565b611ce384848484611e6f565b611d22576040517f08c379a0000000000000000000000000000000000000000000000000000000008152600401611d19906131df565b60405180910390fd5b50505050565b606060405180602001604052806000815250905090565b6060611d4a82611205565b611d89576040517f08c379a0000000000000000000000000000000000000000000000000000000008152600401611d809061337f565b60405180910390fd5b6000611d93611d28565b90506000815111611db35760405180602001604052806000815250611dde565b80611dbd8461166c565b604051602001611dce929190612f83565b6040516020818303038152906040525b915050919050565b60008151905060006a636f6e736f6c652e6c6f679050602083016000808483855afa5050505050565b505050565b611e1e8383612006565b611e2b6000848484611e6f565b611e6a576040517f08c379a0000000000000000000000000000000000000000000000000000000008152600401611e61906131df565b60405180910390fd5b505050565b6000611e908473ffffffffffffffffffffffffffffffffffffffff166121d4565b15611ff9578373ffffffffffffffffffffffffffffffffffffffff1663150b7a02611eb9611271565b8786866040518563ffffffff1660e01b8152600401611edb94939291906130ef565b602060405180830381600087803b158015611ef557600080fd5b505af1925050508015611f2657506040513d601f19601f82011682018060405250810190611f23919061252b565b60015b611fa9573d8060008114611f56576040519150601f19603f3d011682016040523d82523d6000602084013e611f5b565b606091505b50600081511415611fa1576040517f08c379a0000000000000000000000000000000000000000000000000000000008152600401611f98906131df565b60405180910390fd5b805181602001fd5b63150b7a0260e01b7bffffffffffffffffffffffffffffffffffffffffffffffffffffffff1916817bffffffffffffffffffffffffffffffffffffffffffffffffffffffff191614915050611ffe565b600190505b949350505050565b600073ffffffffffffffffffffffffffffffffffffffff168273ffffffffffffffffffffffffffffffffffffffff161415612076576040517f08c379a000000000000000000000000000000000000000000000000000000000815260040161206d906132ff565b60405180910390fd5b61207f81611205565b156120bf576040517f08c379a00000000000000000000000000000000000000000000000000000000081526004016120b6906131ff565b60405180910390fd5b6120cb60008383611e0f565b6001600360008473ffffffffffffffffffffffffffffffffffffffff1673ffffffffffffffffffffffffffffffffffffffff168152602001908152602001600020600082825461211b91906134d3565b92505081905550816002600083815260200190815260200160002060006101000a81548173ffffffffffffffffffffffffffffffffffffffff021916908373ffffffffffffffffffffffffffffffffffffffff160217905550808273ffffffffffffffffffffffffffffffffffffffff16600073ffffffffffffffffffffffffffffffffffffffff167fddf252ad1be2c89b69c2b068fc378daa952ba7f163c4a11628f55a4df523b3ef60405160405180910390a45050565b600080823b905060008111915050919050565b8280546121f39061369e565b90600052602060002090601f016020900481019282612215576000855561225c565b82601f1061222e57805160ff191683800117855561225c565b8280016001018555821561225c579182015b8281111561225b578251825591602001919060010190612240565b5b509050612269919061226d565b5090565b5b8082111561228657600081600090555060010161226e565b5090565b600061229d6122988461344b565b61341a565b9050828152602081018484840111156122b557600080fd5b6122c084828561365c565b509392505050565b6000813590506122d781613817565b92915050565b6000813590506122ec8161382e565b92915050565b60008135905061230181613845565b92915050565b60008151905061231681613845565b92915050565b600082601f83011261232d57600080fd5b813561233d84826020860161228a565b91505092915050565b6000813590506123558161385c565b92915050565b60006020828403121561236d57600080fd5b600061237b848285016122c8565b91505092915050565b6000806040838503121561239757600080fd5b60006123a5858286016122c8565b92505060206123b6858286016122c8565b9150509250929050565b6000806000606084860312156123d557600080fd5b60006123e3868287016122c8565b93505060206123f4868287016122c8565b925050604061240586828701612346565b9150509250925092565b6000806000806080858703121561242557600080fd5b6000612433878288016122c8565b9450506020612444878288016122c8565b935050604061245587828801612346565b925050606085013567ffffffffffffffff81111561247257600080fd5b61247e8782880161231c565b91505092959194509250565b6000806040838503121561249d57600080fd5b60006124ab858286016122c8565b92505060206124bc858286016122dd565b9150509250929050565b600080604083850312156124d957600080fd5b60006124e7858286016122c8565b92505060206124f885828601612346565b9150509250929050565b60006020828403121561251457600080fd5b6000612522848285016122f2565b91505092915050565b60006020828403121561253d57600080fd5b600061254b84828501612307565b91505092915050565b60006020828403121561256657600080fd5b600061257484828501612346565b91505092915050565b612586816135e8565b82525050565b612595816135fa565b82525050565b60006125a682613490565b6125b081856134a6565b93506125c081856020860161366b565b6125c981613806565b840191505092915050565b60006125df8261349b565b6125e981856134b7565b93506125f981856020860161366b565b61260281613806565b840191505092915050565b60006126188261349b565b61262281856134c8565b935061263281856020860161366b565b80840191505092915050565b6000815461264b8161369e565b61265581866134c8565b945060018216600081146126705760018114612681576126b4565b60ff198316865281860193506126b4565b61268a8561347b565b60005b838110156126ac5781548189015260018201915060208101905061268d565b838801955050505b50505092915050565b60006126ca6032836134b7565b91507f4552433732313a207472616e7366657220746f206e6f6e20455243373231526560008301527f63656976657220696d706c656d656e74657200000000000000000000000000006020830152604082019050919050565b6000612730601c836134b7565b91507f4552433732313a20746f6b656e20616c7265616479206d696e746564000000006000830152602082019050919050565b6000612770600a836134c8565b91507f54484952445f574f5244000000000000000000000000000000000000000000006000830152600a82019050919050565b60006127b06064836134c8565b91507f222c20226465736372697074696f6e223a20224120636f6c6c656374696f6e2060008301527f6f66207765623320547261646572204a6f65732050726f64756374732e222c2060208301527f22696d616765223a2022646174613a696d6167652f7376672b786d6c3b62617360408301527f6536342c000000000000000000000000000000000000000000000000000000006060830152606482019050919050565b60006128626024836134b7565b91507f4552433732313a207472616e7366657220746f20746865207a65726f2061646460008301527f72657373000000000000000000000000000000000000000000000000000000006020830152604082019050919050565b60006128c86019836134b7565b91507f4552433732313a20617070726f766520746f2063616c6c6572000000000000006000830152602082019050919050565b6000612908600b836134c8565b91507f5345434f4e445f574f52440000000000000000000000000000000000000000006000830152600b82019050919050565b6000612948602c836134b7565b91507f4552433732313a206f70657261746f7220717565727920666f72206e6f6e657860008301527f697374656e7420746f6b656e00000000000000000000000000000000000000006020830152604082019050919050565b60006129ae600d836134c8565b91507f3c2f746578743e3c2f7376673e000000000000000000000000000000000000006000830152600d82019050919050565b60006129ee6038836134b7565b91507f4552433732313a20617070726f76652063616c6c6572206973206e6f74206f7760008301527f6e6572206e6f7220617070726f76656420666f7220616c6c00000000000000006020830152604082019050919050565b6000612a54602a836134b7565b91507f4552433732313a2062616c616e636520717565727920666f7220746865207a6560008301527f726f2061646472657373000000000000000000000000000000000000000000006020830152604082019050919050565b6000612aba6029836134b7565b91507f4552433732313a206f776e657220717565727920666f72206e6f6e657869737460008301527f656e7420746f6b656e00000000000000000000000000000000000000000000006020830152604082019050919050565b6000612b20602e836134b7565b91507f45524337323155524953746f726167653a2055524920736574206f66206e6f6e60008301527f6578697374656e7420746f6b656e0000000000000000000000000000000000006020830152604082019050919050565b6000612b866002836134c8565b91507f227d0000000000000000000000000000000000000000000000000000000000006000830152600282019050919050565b6000612bc66020836134b7565b91507f4552433732313a206d696e7420746f20746865207a65726f20616464726573736000830152602082019050919050565b6000612c066031836134b7565b91507f45524337323155524953746f726167653a2055524920717565727920666f722060008301527f6e6f6e6578697374656e7420746f6b656e0000000000000000000000000000006020830152604082019050919050565b6000612c6c602c836134b7565b91507f4552433732313a20617070726f76656420717565727920666f72206e6f6e657860008301527f697374656e7420746f6b656e00000000000000000000000000000000000000006020830152604082019050919050565b6000612cd26029836134b7565b91507f4552433732313a207472616e73666572206f6620746f6b656e2074686174206960008301527f73206e6f74206f776e00000000000000000000000000000000000000000000006020830152604082019050919050565b6000612d38602f836134b7565b91507f4552433732314d657461646174613a2055524920717565727920666f72206e6f60008301527f6e6578697374656e7420746f6b656e00000000000000000000000000000000006020830152604082019050919050565b6000612d9e600a836134c8565b91507f7b226e616d65223a2022000000000000000000000000000000000000000000006000830152600a82019050919050565b6000612dde6021836134b7565b91507f4552433732313a20617070726f76616c20746f2063757272656e74206f776e6560008301527f72000000000000000000000000000000000000000000000000000000000000006020830152604082019050919050565b6000612e44600a836134c8565b91507f46495253545f574f5244000000000000000000000000000000000000000000006000830152600a82019050919050565b6000612e84601d836134c8565b91507f646174613a6170706c69636174696f6e2f6a736f6e3b6261736536342c0000006000830152601d82019050919050565b6000612ec46031836134b7565b91507f4552433732313a207472616e736665722063616c6c6572206973206e6f74206f60008301527f776e6572206e6f7220617070726f7665640000000000000000000000000000006020830152604082019050919050565b6000612f2a601a836134b7565b91507f4d617820616d6f756e74206f66204e465473206d696e7465642e0000000000006000830152602082019050919050565b612f6681613652565b82525050565b6000612f78828461260d565b915081905092915050565b6000612f8f828561260d565b9150612f9b828461260d565b91508190509392505050565b6000612fb3828661260d565b9150612fbf828561260d565b9150612fcb828461260d565b9150819050949350505050565b6000612fe4828561263e565b9150612ff0828461260d565b9150612ffb826129a1565b91508190509392505050565b600061301282612763565b915061301e828461260d565b915081905092915050565b6000613034826128fb565b9150613040828461260d565b915081905092915050565b600061305682612d91565b9150613062828561260d565b915061306d826127a3565b9150613079828461260d565b915061308482612b79565b91508190509392505050565b600061309b82612e37565b91506130a7828461260d565b915081905092915050565b60006130bd82612e77565b91506130c9828461260d565b915081905092915050565b60006020820190506130e9600083018461257d565b92915050565b6000608082019050613104600083018761257d565b613111602083018661257d565b61311e6040830185612f5d565b8181036060830152613130818461259b565b905095945050505050565b6000604082019050613150600083018561257d565b61315d6020830184612f5d565b9392505050565b6000602082019050613179600083018461258c565b92915050565b6000602082019050818103600083015261319981846125d4565b905092915050565b600060608201905081810360008301526131bb81866125d4565b90506131ca6020830185612f5d565b6131d7604083018461257d565b949350505050565b600060208201905081810360008301526131f8816126bd565b9050919050565b6000602082019050818103600083015261321881612723565b9050919050565b6000602082019050818103600083015261323881612855565b9050919050565b60006020820190508181036000830152613258816128bb565b9050919050565b600060208201905081810360008301526132788161293b565b9050919050565b60006020820190508181036000830152613298816129e1565b9050919050565b600060208201905081810360008301526132b881612a47565b9050919050565b600060208201905081810360008301526132d881612aad565b9050919050565b600060208201905081810360008301526132f881612b13565b9050919050565b6000602082019050818103600083015261331881612bb9565b9050919050565b6000602082019050818103600083015261333881612bf9565b9050919050565b6000602082019050818103600083015261335881612c5f565b9050919050565b6000602082019050818103600083015261337881612cc5565b9050919050565b6000602082019050818103600083015261339881612d2b565b9050919050565b600060208201905081810360008301526133b881612dd1565b9050919050565b600060208201905081810360008301526133d881612eb7565b9050919050565b600060208201905081810360008301526133f881612f1d565b9050919050565b60006020820190506134146000830184612f5d565b92915050565b6000604051905081810181811067ffffffffffffffff82111715613441576134406137d7565b5b8060405250919050565b600067ffffffffffffffff821115613466576134656137d7565b5b601f19601f8301169050602081019050919050565b60008190508160005260206000209050919050565b600081519050919050565b600081519050919050565b600082825260208201905092915050565b600082825260208201905092915050565b600081905092915050565b60006134de82613652565b91506134e983613652565b9250827fffffffffffffffffffffffffffffffffffffffffffffffffffffffffffffffff0382111561351e5761351d61374a565b5b828201905092915050565b600061353482613652565b915061353f83613652565b92508261354f5761354e613779565b5b828204905092915050565b600061356582613652565b915061357083613652565b9250817fffffffffffffffffffffffffffffffffffffffffffffffffffffffffffffffff04831182151516156135a9576135a861374a565b5b828202905092915050565b60006135bf82613652565b91506135ca83613652565b9250828210156135dd576135dc61374a565b5b828203905092915050565b60006135f382613632565b9050919050565b60008115159050919050565b60007fffffffff0000000000000000000000000000000000000000000000000000000082169050919050565b600073ffffffffffffffffffffffffffffffffffffffff82169050919050565b6000819050919050565b82818337600083830152505050565b60005b8381101561368957808201518184015260208101905061366e565b83811115613698576000848401525b50505050565b600060028204905060018216806136b657607f821691505b602082108114156136ca576136c96137a8565b5b50919050565b60006136db82613652565b91507fffffffffffffffffffffffffffffffffffffffffffffffffffffffffffffffff82141561370e5761370d61374a565b5b600182019050919050565b600061372482613652565b915061372f83613652565b92508261373f5761373e613779565b5b828206905092915050565b7f4e487b7100000000000000000000000000000000000000000000000000000000600052601160045260246000fd5b7f4e487b7100000000000000000000000000000000000000000000000000000000600052601260045260246000fd5b7f4e487b7100000000000000000000000000000000000000000000000000000000600052602260045260246000fd5b7f4e487b7100000000000000000000000000000000000000000000000000000000600052604160045260246000fd5b6000601f19601f8301169050919050565b613820816135e8565b811461382b57600080fd5b50565b613837816135fa565b811461384257600080fd5b50565b61384e81613606565b811461385957600080fd5b50565b61386581613652565b811461387057600080fd5b5056fe4142434445464748494a4b4c4d4e4f505152535455565758595a6162636465666768696a6b6c6d6e6f707172737475767778797a303132333435363738392b2f416e204e4654207720494420257320686173206265656e206d696e74656420746f202573a264697066735822122024779da4dd3f903e5be35bdb21ea3e8aaeddc4f407366d68326b44f1de085b8664736f6c634300080000333c73766720786d6c6e733d27687474703a2f2f7777772e77332e6f72672f323030302f73766727207072657365727665417370656374526174696f3d27784d696e594d696e206d656574272076696577426f783d273020302033353020333530273e3c7374796c653e2e62617365207b2066696c6c3a2077686974653b20666f6e742d66616d696c793a2073657269663b20666f6e742d73697a653a20313470783b207d3c2f7374796c653e3c726563742077696474683d273130302527206865696768743d2731303025272066696c6c3d27626c61636b27202f3e3c7465787420783d273530252720793d273530252720636c6173733d27626173652720646f6d696e616e742d626173656c696e653d276d6964646c652720746578742d616e63686f723d276d6964646c65273e",
    "linkReferences": {},
    "deployedLinkReferences": {}
}